{"abi":[{"type":"function","name":"increment","inputs":[],"outputs":[],"stateMutability":"nonpayable"},{"type":"function","name":"number","inputs":[],"outputs":[{"name":"","type":"uint256","internalType":"uint256"}],"stateMutability":"view"},{"type":"function","name":"setNumber","inputs":[{"name":"newNumber","type":"uint256","internalType":"uint256"}],"outputs":[],"stateMutability":"nonpayable"}],"bytecode":{"object":"0x60806040523461001f57610011610024565b61029b61002f823961029b90f35b61002a565b60405190565b5f80fdfe60806040526004361015610013575b6101af565b61001d5f3561004c565b80633fb5c1cb146100475780638381f58a146100425763d09de08a0361000e5761017c565b610147565b6100a9565b60e01c90565b60405190565b5f80fd5b5f80fd5b90565b61006c81610060565b0361007357565b5f80fd5b9050359061008482610063565b565b9060208282031261009f5761009c915f01610077565b90565b61005c565b5f0190565b346100d7576100c16100bc366004610086565b610210565b6100c9610052565b806100d3816100a4565b0390f35b610058565b5f9103126100e657565b61005c565b1c90565b90565b61010290600861010793026100eb565b6100ef565b90565b9061011591546100f2565b90565b6101225f8061010a565b90565b61012e90610060565b9052565b9190610145905f60208501940190610125565b565b34610177576101573660046100dc565b610173610162610118565b61016a610052565b91829182610132565b0390f35b610058565b346101aa5761018c3660046100dc565b610194610272565b61019c610052565b806101a6816100a4565b0390f35b610058565b5f80fd5b5f1b90565b906101c45f19916101b3565b9181191691161790565b90565b6101e56101e06101ea92610060565b6101ce565b610060565b90565b90565b9061020561020061020c926101d1565b6101ed565b82546101b8565b9055565b61021a905f6101f0565b565b5f1c90565b61022d6102329161021c565b6100ef565b90565b61023f9054610221565b90565b634e487b7160e01b5f52601160045260245ffd5b61025f90610060565b5f19811461026d5760010190565b610242565b61028c6102866102815f610235565b610256565b5f6101f0565b56fea164736f6c6343000817000a","linkReferences":{}},"methodIdentifiers":{"increment()":"d09de08a","number()":"8381f58a","setNumber(uint256)":"3fb5c1cb"},"id":23}